:020000040000FA
:0400000008EF00F015
:08000800079E0068F29410004D
:10010000116A126A136A146A196A206A010E016E72
:10011000010E026E010E036E010E046EF19E8B6ADB
:10012000946A896A92909292929489908992899421
:100130000F0E8B6E89808990006AF28E420ED56E0A
:10014000F294F28AF184D58E939E00AEFED7006AB7
:10015000380E8B6E89808990D58E010E096E00AEA7
:10016000FED7006A450E8B6E898489808990D58E72
:1001700000AEFED7006A4E0E8B6E89808990D58EB8
:1001800000AEFED7006A540E8B6E89808990D58EA2
:1001900000AEFED7006A450E8B6E89808990D58EA1
:1001A00000AEFED7006A520E8B6E89808990D58E84
:1001B00000AEFED7006A8F0E8B6E89808990D58E37
:1001C00000AEFED7006A430E8B6E89808990D58E73
:1001D00000AEFED7006A4F0E8B6E89808990D58E57
:1001E00000AEFED7006A440E8B6E89808990D58E52
:1001F00000AEFED7006A450E8B6E89808990D58E41
:1002000000AEFED7006A8F0E8B6E89808990D58EE6
:1002100000AEFED7006A4F0E8B6E89808990D58E16
:1002200000AEFED7006A520E8B6E89808990D58E03
:1002300000AEFED7006AC00E8B6E899489808990CB
:10024000D58E00AEFED7006A500E8B6E89848980F1
:100250008990D58E00AEFED7006A520E8B6E8980D3
:100260008990D58E00AEFED7006A450E8B6E8980D0
:100270008990D58E00AEFED7006A530E8B6E8980B2
:100280008990D58E00AEFED7006A530E8B6E8980A2
:100290008990D58E00AEFED7006A530E8B6E898092
:1002A0008990D58E00AEFED7006A8F0E8B6E898046
:1002B0008990D58E00AEFED7006A230E8B6E89849E
:1002C00089808990D58E00AEFED7006A230E8B6E92
:1002D000898489808990D58E00AEFED7006A230E6E
:1002E0008B6E898489808990D58E00AEFED7006A96
:1002F000230E8B6E898489808990D58E00AEFED7BF
:10030000F80E8C6A956E1FEF03F0092A10C005F0F5
:10031000020ED56E006A010E8B6E899489808990D9
:10032000D58E00AEFED7006A2A0E8B6E8984898036
:100330008990D58E00AEFED71FEF03F0092A10C0BA
:1003400006F0030ED56E006A2A0E8B6E89848980B2
:100350008990D58E00AEFED71FEF03F0092A10C09A
:1003600007F0030ED56E006A2A0E8B6E8984898091
:100370008990D58E00AEFED71FEF03F0010E096EF7
:1003800010C008F0030ED56E006A2A0E8B6E8984A9
:1003900089808990D58E126A00AEFED714B0DDEF49
:1003A00003F019B0EBEF03F001500562112A170EAC
:1003B0000562122A02500662112A170E0562122ADD
:1003C00003500762112A170E0562122A04500862B0
:1003D000112A170E0562122A000E1162F4EF01F0C5
:1003E000116A20B005D010D020B002D012620AD01D
:1003F00013A003D011620DEF04F013A0D0EF03F0AF
:10040000D8EF03F064EF03F08A8E420ED56E006AD7
:10041000C00E8B6E899489808990D58E00AEFED7F0
:10042000006A4C0E8B6E898489808990D58E00AECF
:10043000FED7006A4F0E8B6E898489808990D58E95
:1004400000AEFED7006A430E8B6E89848980899046
:10045000D58E00AEFED7006A4B0E8B6E89848980E4
:100460008990D58E00AEFED7006A8F0E8B6E898084
:100470008990D58E00AEFED7006A4F0E8B6E8984B0
:1004800089808990D58E00AEFED7006A500E8B6EA3
:10049000898489808990D58E00AEFED7006A450E8A
:1004A0008B6E898489808990D58E00AEFED7006AD4
:1004B0004E0E8B6E898489808990D58E00AEFED7D2
:1004C000006A450E8B6E898489808990D58E00AE36
:1004D000FED7006A440E8B6E898489808990D58E00
:1004E00000AEFED7FFD7010E106E010E09640DD7C6
:1004F000020E096423D7030E096430D7040E096481
:100500003DD7040E106E010E0964FFD6020E096479
:1005100015D7030E096422D7040E09642FD7070EDE
:10052000106E010E0964F1D6020E096407D7030E9E
:10053000096414D7040E096421D7160E106E010E3B
:100540000964E3D6020E0964F9D6030E096406D7DE
:10055000040E096413D7020E106E010E0964D5D67D
:10056000020E0964EBD6030E0964F8D6040E096482
:1005700005D7050E106E010E0964C7D6020E096478
:10058000DDD6030E0964EAD6040E0964F7D6080E18
:10059000106E010E0964B9D6020E0964CFD6030E9F
:1005A0000964DCD6040E0964E9D6000E106E010E53
:1005B0000964ABD6020E0964C1D6030E0964CED617
:1005C000040E0964DBD6030E106E010E09649DD67D
:1005D000020E0964B3D6030E0964C0D6040E096482
:1005E000CDD6060E106E010E09648FD6020E096478
:1005F000A5D6030E0964B2D6040E0964BFD6090E4F
:10060000106E010E096481D6020E096497D6030E9E
:100610000964A4D6040E0964B1D6170E106E010E3B
:10062000096485EF01F0020E09649EEF01F0030EEC
:100630000964AEEF01F0040E0964BEEF01F08C8096
:1006400083B673EF02F083B881EF02F083BA8FEFC5
:1006500002F083BC9DEF02F00000000000000000EB
:100660000000000000008C908C8283B6ABEF02F09B
:1006700083B8B9EF02F083BAC7EF02F083BCD5EFBD
:1006800002F0000000000000000000000000000078
:100690008C928C8483B6E3EF02F083B8F1EF02F022
:1006A00083BAFFEF02F083BC0DEF03F000000000FF
:1006B000000000000000000000000000000000003A
:1006C00000008C941FEF03F0420ED56E006AC00E3E
:1006D0008B6E899489808990D58E00AEFED7006A92
:1006E000570E8B6E898489808990D58E00AEFED797
:1006F000006A520E8B6E898489808990D58E00AEF7
:10070000FED7006A4F0E8B6E898489808990D58EC2
:1007100000AEFED7006A4E0E8B6E89848980899068
:10072000D58E00AEFED7006A470E8B6E8984898015
:100730008990D58E00AEFED7006A8F0E8B6E8980B1
:100740008990D58E00AEFED7006A430E8B6E8984E9
:1007500089808990D58E00AEFED7006A4F0E8B6ED1
:10076000898489808990D58E00AEFED7006A440EB8
:100770008B6E898489808990D58E00AEFED7006A01
:10078000450E8B6E898489808990D58E00AEFED708
:10079000056A066A076A086A116AA06B1FEF03F010
:1007A000126A1368206875EC04F0116A1FEF03F0F9
:1007B000146834EC05F01FEF03F005C015F006C017
:1007C00016F007C017F008C018F0146A19688BEC0F
:1007D00005F01FEF03F0116A15500562112A16503B
:1007E0000662112A17500762112A18500862112A4E
:1007F000000E11620DEF04F0116A136A146A196A8F
:10080000206A15C001F016C002F017C003F018C02E
:1008100004F001EF06F01FEF03F0420ED56E006A00
:10082000010E8B6E899489808990D58E00AEFED79B
:10083000006A450E8B6E898489808990D58E00AEC2
:10084000FED7006A520E8B6E89808990D58E00AEDD
:10085000FED7006A4F0E8B6E898489808990D58E71
:1008600000AEFED7006A520E8B6E89808990D58EBD
:1008700000AEFED7006A520E8B6E89808990D58EAD
:1008800000AEFED7006A8F0E8B6E89808990D58E60
:1008900000AEFED7006A520E8B6E89808990D58E8D
:1008A00000AEFED7006A450E8B6E898489808990E0
:1008B000D58E00AEFED7006A530E8B6E898089906C
:1008C000D58E00AEFED7006A450E8B6E8984898076
:1008D0008990D58E00AEFED7006A540E8B6E89804B
:1008E0008990D58E00AEFED7FFD7420ED56E006A36
:1008F000010E8B6E899489808990D58E00AEFED7CB
:10090000006A500E8B6E898489808990D58E00AEE6
:10091000FED7006A410E8B6E898489808990D58EBE
:1009200000AEFED7006A530E8B6E89808990D58EFB
:1009300000AEFED7006A530E8B6E89808990D58EEB
:1009400000AEFED7006A8F0E8B6E89808990D58E9F
:1009500000AEFED7006A430E8B6E89808990D58EDB
:1009600000AEFED7006A480E8B6E89808990D58EC6
:1009700000AEFED7006A410E8B6E89848980899013
:10098000D58E00AEFED7006A4E0E8B6E89848980AC
:100990008990D58E00AEFED7006A470E8B6E898493
:1009A00089808990D58E00AEFED7006A450E8B6E89
:1009B000898489808990D58E00AEFED7006AC00EEA
:1009C0008B6E899489808990D58E00AEFED7006A9F
:1009D000450E8B6E898489808990D58E00AEFED7B6
:1009E000006A4E0E8B6E89808990D58E00AEFED740
:1009F000006A540E8B6E89808990D58E00AEFED72A
:100A0000006A450E8B6E89808990D58E00AEFED728
:100A1000006A520E8B6E89808990D58E00AEFED70B
:100A2000006A8F0E8B6E89808990D58E00AEFED7BE
:100A3000006A4F0E8B6E898489808990D58E00AEB6
:100A4000FED7006A4C0E8B6E898489808990D58E82
:100A500000AEFED7006A440E8B6E8984898089902F
:100A6000D58E00AEFED71200420ED56E006A010E82
:100A70008B6E899489808990D58E00AEFED7006AEE
:100A8000450E8B6E898489808990D58E00AEFED705
:100A9000006A4E0E8B6E89808990D58E00AEFED78F
:100AA000006A540E8B6E89808990D58E00AEFED779
:100AB000006A450E8B6E89808990D58E00AEFED778
:100AC000006A520E8B6E89808990D58E00AEFED75B
:100AD000006A8F0E8B6E898489808990D58E00AED6
:100AE000FED7006A4E0E8B6E898489808990D58EE0
:100AF00000AEFED7006A450E8B6E89808990D58E38
:100B000000AEFED7006A570E8B6E89808990D58E15
:100B100000AEFED71200420ED56E006A010E8B6E3B
:100B2000899489808990D58E00AEFED7006A4F0ED9
:100B30008B6E898489808990D58E00AEFED7006A3D
:100B40004E0E8B6E89808990D58E00AEFED7006ADE
:100B5000450E8B6E89808990D58E00AEFED7006AD7
:100B60008F0E8B6E89808990D58E00AEFED7006A7D
:100B70004D0E8B6E89808990D58E00AEFED7006AAF
:100B80004F0E8B6E898489808990D58E00AEFED7FA
:100B9000006A520E8B6E89808990D58E00AEFED78A
:100BA000006A450E8B6E89808990D58E00AEFED787
:100BB000006A8F0E8B6E89808990D58E00AEFED72D
:100BC000006A540E8B6E89808990D58E00AEFED758
:100BD000006A490E8B6E89808990D58E00AEFED753
:100BE000006A4D0E8B6E89808990D58E00AEFED73F
:100BF000006A450E8B6E89808990D58E00AEFED737
:100C00001200420ED56E006A010E8B6E89948980A7
:100C10008990D58E00AEFED7006A440E8B6E898413
:100C200089808990D58E00AEFED7006A4F0E8B6EFC
:100C3000898489808990D58E00AEFED7006A4E0ED9
:100C40008B6E89808990D58E00AEFED7006A450EE6
:100C50008B6E89808990D58E00AEFED7030ED56E3F
:100C6000006AD58E00AEFED7006AD58E00AEFED7E4
:100C7000420ED56E006A010E8B6E89948980899030
:0A0C8000D58E00AEFED7B1EF00F0F4
:020000040030CA
:03000100071F1EB8
:020005008185F3
:060008000FC00FE00F40E5
:00000001FF
